{
  "contractName": "CryptoTransactions",
  "abi": [
    {
      "constant": true,
      "inputs": [],
      "name": "name",
      "outputs": [
        {
          "name": "",
          "type": "string"
        }
      ],
      "payable": false,
      "stateMutability": "view",
      "type": "function"
    },
    {
      "constant": true,
      "inputs": [
        {
          "name": "",
          "type": "uint256"
        }
      ],
      "name": "transactions",
      "outputs": [
        {
          "name": "id",
          "type": "uint256"
        },
        {
          "name": "transactionType",
          "type": "string"
        },
        {
          "name": "amount",
          "type": "uint256"
        },
        {
          "name": "user",
          "type": "address"
        },
        {
          "name": "transactionDate",
          "type": "uint256"
        },
        {
          "name": "rate",
          "type": "uint256"
        },
        {
          "name": "closeDate",
          "type": "uint256"
        },
        {
          "name": "closeRate",
          "type": "uint256"
        },
        {
          "name": "deleted",
          "type": "bool"
        }
      ],
      "payable": false,
      "stateMutability": "view",
      "type": "function"
    },
    {
      "constant": true,
      "inputs": [],
      "name": "transactionsCount",
      "outputs": [
        {
          "name": "",
          "type": "uint256"
        }
      ],
      "payable": false,
      "stateMutability": "view",
      "type": "function"
    },
    {
      "inputs": [],
      "payable": false,
      "stateMutability": "nonpayable",
      "type": "constructor"
    },
    {
      "anonymous": false,
      "inputs": [
        {
          "indexed": false,
          "name": "id",
          "type": "uint256"
        },
        {
          "indexed": false,
          "name": "transactionType",
          "type": "string"
        },
        {
          "indexed": false,
          "name": "amount",
          "type": "uint256"
        },
        {
          "indexed": false,
          "name": "user",
          "type": "address"
        },
        {
          "indexed": false,
          "name": "transactionDate",
          "type": "uint256"
        },
        {
          "indexed": false,
          "name": "rate",
          "type": "uint256"
        }
      ],
      "name": "TransactionCreated",
      "type": "event"
    },
    {
      "anonymous": false,
      "inputs": [
        {
          "indexed": false,
          "name": "id",
          "type": "uint256"
        },
        {
          "indexed": false,
          "name": "transactionType",
          "type": "string"
        },
        {
          "indexed": false,
          "name": "amount",
          "type": "uint256"
        },
        {
          "indexed": false,
          "name": "user",
          "type": "address"
        },
        {
          "indexed": false,
          "name": "transactionDate",
          "type": "uint256"
        },
        {
          "indexed": false,
          "name": "closeDate",
          "type": "uint256"
        },
        {
          "indexed": false,
          "name": "rate",
          "type": "uint256"
        },
        {
          "indexed": false,
          "name": "closeRate",
          "type": "uint256"
        }
      ],
      "name": "TransactionClosed",
      "type": "event"
    },
    {
      "constant": false,
      "inputs": [
        {
          "name": "_type",
          "type": "string"
        },
        {
          "name": "_amount",
          "type": "uint256"
        },
        {
          "name": "_transactionDate",
          "type": "uint256"
        },
        {
          "name": "_rate",
          "type": "uint256"
        }
      ],
      "name": "createTransaction",
      "outputs": [],
      "payable": false,
      "stateMutability": "nonpayable",
      "type": "function"
    },
    {
      "constant": false,
      "inputs": [
        {
          "name": "_transactionId",
          "type": "uint256"
        },
        {
          "name": "_closeDate",
          "type": "uint256"
        },
        {
          "name": "_closeRate",
          "type": "uint256"
        }
      ],
      "name": "closeTrade",
      "outputs": [],
      "payable": false,
      "stateMutability": "nonpayable",
      "type": "function"
    },
    {
      "constant": true,
      "inputs": [],
      "name": "getTransactionsByUser",
      "outputs": [
        {
          "name": "",
          "type": "uint256[]"
        }
      ],
      "payable": false,
      "stateMutability": "view",
      "type": "function"
    }
  ],
  "bytecode": "0x6080604052600060015534801561001557600080fd5b506040805190810160405280601281526020017f43727970746f5472616e73616374696f6e73000000000000000000000000000081525060009080519060200190610061929190610067565b5061010c565b828054600181600116156101000203166002900490600052602060002090601f016020900481019282601f106100a857805160ff19168380011785556100d6565b828001600101855582156100d6579182015b828111156100d55782518255916020019190600101906100ba565b5b5090506100e391906100e7565b5090565b61010991905b808211156101055760008160009055506001016100ed565b5090565b90565b610ec98061011b6000396000f3fe608060405260043610610078576000357c0100000000000000000000000000000000000000000000000000000000900463ffffffff16806306fdde031461007d57806363d0a0801461010d5780639ace38c2146101795780639e3ef3c614610295578063e0a5b1c2146102e4578063fd99a746146103ca575b600080fd5b34801561008957600080fd5b506100926103f5565b6040518080602001828103825283818151815260200191508051906020019080838360005b838110156100d25780820151818401526020810190506100b7565b50505050905090810190601f1680156100ff5780820380516001836020036101000a031916815260200191505b509250505060405180910390f35b34801561011957600080fd5b50610122610493565b6040518080602001828103825283818151815260200191508051906020019060200280838360005b8381101561016557808201518184015260208101905061014a565b505050509050019250505060405180910390f35b34801561018557600080fd5b506101b26004803603602081101561019c57600080fd5b810190808035906020019092919050505061064f565b604051808a8152602001806020018981526020018873ffffffffffffffffffffffffffffffffffffffff1673ffffffffffffffffffffffffffffffffffffffff1681526020018781526020018681526020018581526020018481526020018315151515815260200182810382528a818151815260200191508051906020019080838360005b83811015610252578082015181840152602081019050610237565b50505050905090810190601f16801561027f5780820380516001836020036101000a031916815260200191505b509a505050505050505050505060405180910390f35b3480156102a157600080fd5b506102e2600480360360608110156102b857600080fd5b81019080803590602001909291908035906020019092919080359060200190929190505050610762565b005b3480156102f057600080fd5b506103c86004803603608081101561030757600080fd5b810190808035906020019064010000000081111561032457600080fd5b82018360208201111561033657600080fd5b8035906020019184600183028401116401000000008311171561035857600080fd5b91908080601f016020809104026020016040519081016040528093929190818152602001838380828437600081840152601f19601f820116905080830192505050505050509192919290803590602001909291908035906020019092919080359060200190929190505050610b2c565b005b3480156103d657600080fd5b506103df610df2565b6040518082815260200191505060405180910390f35b60008054600181600116156101000203166002900480601f01602080910402602001604051908101604052809291908181526020018280546001816001161561010002031660029004801561048b5780601f106104605761010080835404028352916020019161048b565b820191906000526020600020905b81548152906001019060200180831161046e57829003601f168201915b505050505081565b6060806001546040519080825280602002602001820160405280156104c75781602001602082028038833980820191505090505b50905060008090506000600190505b600154811115156105c1573373ffffffffffffffffffffffffffffffffffffffff166002600083815260200190815260200160002060030160009054906101000a900473ffffffffffffffffffffffffffffffffffffffff1673ffffffffffffffffffffffffffffffffffffffff1614801561057357506002600082815260200190815260200160002060080160009054906101000a900460ff16155b156105b4576002600082815260200190815260200160002060000154838381518110151561059d57fe5b906020019060200201818152505081806001019250505b80806001019150506104d6565b506060816040519080825280602002602001820160405280156105f35781602001602082028038833980820191505090505b50905060008090505b8281101561064557838181518110151561061257fe5b90602001906020020151828281518110151561062a57fe5b906020019060200201818152505080806001019150506105fc565b5080935050505090565b6002602052806000526040600020600091509050806000015490806001018054600181600116156101000203166002900480601f0160208091040260200160405190810160405280929190818152602001828054600181600116156101000203166002900480156107015780601f106106d657610100808354040283529160200191610701565b820191906000526020600020905b8154815290600101906020018083116106e457829003601f168201915b5050505050908060020154908060030160009054906101000a900473ffffffffffffffffffffffffffffffffffffffff16908060040154908060050154908060060154908060070154908060080160009054906101000a900460ff16905089565b60008311801561077457506001548311155b15156107e8576040517f08c379a00000000000000000000000000000000000000000000000000000000081526004018080602001828103825260168152602001807f496e76616c6964205472616e73616374696f6e2049440000000000000000000081525060200191505060405180910390fd5b6002600084815260200190815260200160002060030160009054906101000a900473ffffffffffffffffffffffffffffffffffffffff1673ffffffffffffffffffffffffffffffffffffffff163373ffffffffffffffffffffffffffffffffffffffff161415156108e7576040517f08c379a00000000000000000000000000000000000000000000000000000000081526004018080602001828103825260228152602001807f596f7520617265206e6f7420746865206f776e6572206f66207468697320706f81526020017f737400000000000000000000000000000000000000000000000000000000000081525060400191505060405180910390fd5b6060600260008581526020019081526020016000206001018054600181600116156101000203166002900480601f0160208091040260200160405190810160405280929190818152602001828054600181600116156101000203166002900480156109935780601f1061096857610100808354040283529160200191610993565b820191906000526020600020905b81548152906001019060200180831161097657829003601f168201915b505050505090506000600260008681526020019081526020016000206002015490506000600260008781526020019081526020016000206004015490506000600260008881526020019081526020016000206005015490508560026000898152602001908152602001600020600601819055508460026000898152602001908152602001600020600701819055507f446ea2c3db40b3096506c180e8230fb32323f60070c15754edd377a90c1b6fbb600154858533868b878c60405180898152602001806020018881526020018773ffffffffffffffffffffffffffffffffffffffff1673ffffffffffffffffffffffffffffffffffffffff168152602001868152602001858152602001848152602001838152602001828103825289818151815260200191508051906020019080838360005b83811015610ae2578082015181840152602081019050610ac7565b50505050905090810190601f168015610b0f5780820380516001836020036101000a031916815260200191505b50995050505050505050505060405180910390a150505050505050565b600083118015610b3d575060008451115b1515610bb1576040517f08c379a000000000000000000000000000000000000000000000000000000000815260040180806020018281038252601f8152602001807f416d6f756e7420616e6420747970652063616e6e6f7420626520656d7074790081525060200191505060405180910390fd5b6001600081548092919060010191905055506101206040519081016040528060015481526020018581526020018481526020013373ffffffffffffffffffffffffffffffffffffffff168152602001838152602001828152602001600081526020016000815260200160001515815250600260006001548152602001908152602001600020600082015181600001556020820151816001019080519060200190610c5c929190610df8565b506040820151816002015560608201518160030160006101000a81548173ffffffffffffffffffffffffffffffffffffffff021916908373ffffffffffffffffffffffffffffffffffffffff1602179055506080820151816004015560a0820151816005015560c0820151816006015560e082015181600701556101008201518160080160006101000a81548160ff0219169083151502179055509050507fafea3bbfc1c0a43dcc6d5532c2b092387fd636d3100c8589e7fd4c3b7fa2bc53600154858533868660405180878152602001806020018681526020018573ffffffffffffffffffffffffffffffffffffffff1673ffffffffffffffffffffffffffffffffffffffff168152602001848152602001838152602001828103825287818151815260200191508051906020019080838360005b83811015610dad578082015181840152602081019050610d92565b50505050905090810190601f168015610dda5780820380516001836020036101000a031916815260200191505b5097505050505050505060405180910390a150505050565b60015481565b828054600181600116156101000203166002900490600052602060002090601f016020900481019282601f10610e3957805160ff1916838001178555610e67565b82800160010185558215610e67579182015b82811115610e66578251825591602001919060010190610e4b565b5b509050610e749190610e78565b5090565b610e9a91905b80821115610e96576000816000905550600101610e7e565b5090565b9056fea165627a7a72305820c4bf0df27d396eeab2a0a0c204beb6494abd88855ca2e6d3de3a32a79d31440d0029",
  "source": "pragma solidity >=0.4.21 <0.6.0;\n\ncontract CryptoTransactions {\n    string public name;\n    uint public transactionsCount = 0;\n\n    mapping(uint => TransactionValues) public transactions;\n\n    struct TransactionValues {\n        uint id;\n        string transactionType;\n        uint amount;\n        address payable user;\n        uint transactionDate;\n        uint rate;\n        uint closeDate;\n        uint closeRate;\n        bool deleted;\n    }\n\n    event TransactionCreated(\n        uint id,\n        string transactionType,\n        uint amount,\n        address payable user,\n        uint transactionDate,\n        uint rate\n    );\n\n    event TransactionClosed(\n        uint id,\n        string transactionType,\n        uint amount,\n        address payable user,\n        uint transactionDate,\n        uint closeDate,\n        uint rate,\n        uint closeRate\n    );\n\n    constructor() public {\n        name = \"CryptoTransactions\";\n    }\n\n    function createTransaction(\n        string memory _type,\n        uint _amount,\n        uint _transactionDate,\n        uint _rate\n    ) public {\n        require(\n            _amount > 0 && bytes(_type).length > 0,\n            \"Amount and type cannot be empty\"\n        );\n        transactionsCount++;\n        transactions[transactionsCount] = TransactionValues(\n            transactionsCount,\n            _type,\n            _amount,\n            msg.sender,\n            _transactionDate,\n            _rate,\n            0,\n            0,\n            false\n        );\n        emit TransactionCreated(\n            transactionsCount,\n            _type,\n            _amount,\n            msg.sender,\n            _transactionDate,\n            _rate\n        );\n    }\n\n    function closeTrade(\n        uint _transactionId,\n        uint _closeDate,\n        uint _closeRate\n    ) public {\n        require(\n            _transactionId > 0 && _transactionId <= transactionsCount,\n            \"Invalid Transaction ID\"\n        );\n\n        require(\n            msg.sender == transactions[_transactionId].user,\n            \"You are not the owner of this post\"\n        );\n\n        string memory _type = transactions[_transactionId].transactionType;\n        uint _amount = transactions[_transactionId].amount;\n        uint _transactionDate = transactions[_transactionId].transactionDate;\n        uint _rate = transactions[_transactionId].rate;\n\n        transactions[_transactionId].closeDate = _closeDate;\n        transactions[_transactionId].closeRate = _closeRate;\n\n        emit TransactionClosed(\n            transactionsCount,\n            _type,\n            _amount,\n            msg.sender,\n            _transactionDate,\n            _closeDate,\n            _rate,\n            _closeRate\n        );\n    }\n\n    function getTransactionsByUser() public view returns (uint[] memory) {\n        uint[] memory result = new uint[](transactionsCount);\n        uint counter = 0;\n\n        // Iterate over all transactions and filter by msg.sender (the caller)\n        for (uint i = 1; i <= transactionsCount; i++) {\n            if (\n                transactions[i].user == msg.sender && !transactions[i].deleted\n            ) {\n                result[counter] = transactions[i].id;\n                counter++;\n            }\n        }\n\n        // Create a properly sized array and copy the result\n        uint[] memory filteredResult = new uint[](counter);\n        for (uint i = 0; i < counter; i++) {\n            filteredResult[i] = result[i];\n        }\n\n        return filteredResult;\n    }\n}\n",
  "sourcePath": "/Users/opteo/crypto/src/contracts/CryptoTransactions.sol",
  "compiler": {
    "name": "solc",
    "version": "0.5.0+commit.1d4f565a.Emscripten.clang"
  },
  "schemaVersion": "3.4.16",
  "updatedAt": "2024-10-10T09:19:26.727Z",
  "networkType": "ethereum",
  "devdoc": {
    "methods": {}
  },
  "userdoc": {
    "methods": {}
  }
}