{
  "contractName": "CryptoTransactions",
  "abi": [
    {
      "inputs": [],
      "payable": false,
      "stateMutability": "nonpayable",
      "type": "constructor"
    },
    {
      "anonymous": false,
      "inputs": [
        {
          "indexed": false,
          "internalType": "uint256",
          "name": "id",
          "type": "uint256"
        },
        {
          "indexed": false,
          "internalType": "string",
          "name": "transactionType",
          "type": "string"
        },
        {
          "indexed": false,
          "internalType": "uint256",
          "name": "amount",
          "type": "uint256"
        },
        {
          "indexed": false,
          "internalType": "address payable",
          "name": "user",
          "type": "address"
        },
        {
          "indexed": false,
          "internalType": "uint256",
          "name": "transactionDate",
          "type": "uint256"
        },
        {
          "indexed": false,
          "internalType": "uint256",
          "name": "closeDate",
          "type": "uint256"
        },
        {
          "indexed": false,
          "internalType": "uint256",
          "name": "rate",
          "type": "uint256"
        },
        {
          "indexed": false,
          "internalType": "uint256",
          "name": "closeRate",
          "type": "uint256"
        }
      ],
      "name": "TransactionClosed",
      "type": "event"
    },
    {
      "anonymous": false,
      "inputs": [
        {
          "indexed": false,
          "internalType": "uint256",
          "name": "id",
          "type": "uint256"
        },
        {
          "indexed": false,
          "internalType": "string",
          "name": "transactionType",
          "type": "string"
        },
        {
          "indexed": false,
          "internalType": "uint256",
          "name": "amount",
          "type": "uint256"
        },
        {
          "indexed": false,
          "internalType": "address payable",
          "name": "user",
          "type": "address"
        },
        {
          "indexed": false,
          "internalType": "uint256",
          "name": "transactionDate",
          "type": "uint256"
        },
        {
          "indexed": false,
          "internalType": "uint256",
          "name": "rate",
          "type": "uint256"
        }
      ],
      "name": "TransactionCreated",
      "type": "event"
    },
    {
      "constant": true,
      "inputs": [],
      "name": "name",
      "outputs": [
        {
          "internalType": "string",
          "name": "",
          "type": "string"
        }
      ],
      "payable": false,
      "stateMutability": "view",
      "type": "function"
    },
    {
      "constant": true,
      "inputs": [
        {
          "internalType": "uint256",
          "name": "",
          "type": "uint256"
        }
      ],
      "name": "transactions",
      "outputs": [
        {
          "internalType": "uint256",
          "name": "id",
          "type": "uint256"
        },
        {
          "internalType": "string",
          "name": "transactionType",
          "type": "string"
        },
        {
          "internalType": "uint256",
          "name": "amount",
          "type": "uint256"
        },
        {
          "internalType": "address payable",
          "name": "user",
          "type": "address"
        },
        {
          "internalType": "uint256",
          "name": "transactionDate",
          "type": "uint256"
        },
        {
          "internalType": "uint256",
          "name": "rate",
          "type": "uint256"
        },
        {
          "internalType": "uint256",
          "name": "closeDate",
          "type": "uint256"
        },
        {
          "internalType": "uint256",
          "name": "closeRate",
          "type": "uint256"
        },
        {
          "internalType": "bool",
          "name": "deleted",
          "type": "bool"
        }
      ],
      "payable": false,
      "stateMutability": "view",
      "type": "function"
    },
    {
      "constant": true,
      "inputs": [],
      "name": "transactionsCount",
      "outputs": [
        {
          "internalType": "uint256",
          "name": "",
          "type": "uint256"
        }
      ],
      "payable": false,
      "stateMutability": "view",
      "type": "function"
    },
    {
      "constant": false,
      "inputs": [
        {
          "internalType": "string",
          "name": "_type",
          "type": "string"
        },
        {
          "internalType": "uint256",
          "name": "_amount",
          "type": "uint256"
        },
        {
          "internalType": "uint256",
          "name": "_transactionDate",
          "type": "uint256"
        },
        {
          "internalType": "uint256",
          "name": "_rate",
          "type": "uint256"
        }
      ],
      "name": "createTransaction",
      "outputs": [],
      "payable": false,
      "stateMutability": "nonpayable",
      "type": "function"
    },
    {
      "constant": false,
      "inputs": [
        {
          "internalType": "uint256",
          "name": "_transactionId",
          "type": "uint256"
        },
        {
          "internalType": "uint256",
          "name": "_closeDate",
          "type": "uint256"
        },
        {
          "internalType": "uint256",
          "name": "_closeRate",
          "type": "uint256"
        }
      ],
      "name": "closeTrade",
      "outputs": [],
      "payable": false,
      "stateMutability": "nonpayable",
      "type": "function"
    },
    {
      "constant": true,
      "inputs": [],
      "name": "getTransactionsByUser",
      "outputs": [
        {
          "internalType": "uint256[]",
          "name": "",
          "type": "uint256[]"
        }
      ],
      "payable": false,
      "stateMutability": "view",
      "type": "function"
    }
  ],
  "bytecode": "0x6080604052600060015534801561001557600080fd5b506040518060400160405280601281526020017f43727970746f5472616e73616374696f6e73000000000000000000000000000081525060009080519060200190610061929190610067565b5061010c565b828054600181600116156101000203166002900490600052602060002090601f016020900481019282601f106100a857805160ff19168380011785556100d6565b828001600101855582156100d6579182015b828111156100d55782518255916020019190600101906100ba565b5b5090506100e391906100e7565b5090565b61010991905b808211156101055760008160009055506001016100ed565b5090565b90565b610e388061011b6000396000f3fe608060405234801561001057600080fd5b50600436106100625760003560e01c806306fdde031461006757806363d0a080146100ea5780639ace38c2146101495780639e3ef3c614610258578063e0a5b1c21461029a578063fd99a74614610373575b600080fd5b61006f610391565b6040518080602001828103825283818151815260200191508051906020019080838360005b838110156100af578082015181840152602081019050610094565b50505050905090810190601f1680156100dc5780820380516001836020036101000a031916815260200191505b509250505060405180910390f35b6100f261042f565b6040518080602001828103825283818151815260200191508051906020019060200280838360005b8381101561013557808201518184015260208101905061011a565b505050509050019250505060405180910390f35b6101756004803603602081101561015f57600080fd5b81019080803590602001909291905050506105dd565b604051808a8152602001806020018981526020018873ffffffffffffffffffffffffffffffffffffffff1673ffffffffffffffffffffffffffffffffffffffff1681526020018781526020018681526020018581526020018481526020018315151515815260200182810382528a818151815260200191508051906020019080838360005b838110156102155780820151818401526020810190506101fa565b50505050905090810190601f1680156102425780820380516001836020036101000a031916815260200191505b509a505050505050505050505060405180910390f35b6102986004803603606081101561026e57600080fd5b810190808035906020019092919080359060200190929190803590602001909291905050506106f0565b005b610371600480360360808110156102b057600080fd5b81019080803590602001906401000000008111156102cd57600080fd5b8201836020820111156102df57600080fd5b8035906020019184600183028401116401000000008311171561030157600080fd5b91908080601f016020809104026020016040519081016040528093929190818152602001838380828437600081840152601f19601f820116905080830192505050505050509192919290803590602001909291908035906020019092919080359060200190929190505050610a73565b005b61037b610d36565b6040518082815260200191505060405180910390f35b60008054600181600116156101000203166002900480601f0160208091040260200160405190810160405280929190818152602001828054600181600116156101000203166002900480156104275780601f106103fc57610100808354040283529160200191610427565b820191906000526020600020905b81548152906001019060200180831161040a57829003601f168201915b505050505081565b6060806001546040519080825280602002602001820160405280156104635781602001602082028038833980820191505090505b50905060008090506000600190505b6001548111610557573373ffffffffffffffffffffffffffffffffffffffff166002600083815260200190815260200160002060030160009054906101000a900473ffffffffffffffffffffffffffffffffffffffff1673ffffffffffffffffffffffffffffffffffffffff1614801561050d57506002600082815260200190815260200160002060080160009054906101000a900460ff16155b1561054a57600260008281526020019081526020016000206000015483838151811061053557fe5b60200260200101818152505081806001019250505b8080600101915050610472565b506060816040519080825280602002602001820160405280156105895781602001602082028038833980820191505090505b50905060008090505b828110156105d3578381815181106105a657fe5b60200260200101518282815181106105ba57fe5b6020026020010181815250508080600101915050610592565b5080935050505090565b6002602052806000526040600020600091509050806000015490806001018054600181600116156101000203166002900480601f01602080910402602001604051908101604052809291908181526020018280546001816001161561010002031660029004801561068f5780601f106106645761010080835404028352916020019161068f565b820191906000526020600020905b81548152906001019060200180831161067257829003601f168201915b5050505050908060020154908060030160009054906101000a900473ffffffffffffffffffffffffffffffffffffffff16908060040154908060050154908060060154908060070154908060080160009054906101000a900460ff16905089565b60008311801561070257506001548311155b610774576040517f08c379a00000000000000000000000000000000000000000000000000000000081526004018080602001828103825260168152602001807f496e76616c6964205472616e73616374696f6e2049440000000000000000000081525060200191505060405180910390fd5b6002600084815260200190815260200160002060030160009054906101000a900473ffffffffffffffffffffffffffffffffffffffff1673ffffffffffffffffffffffffffffffffffffffff163373ffffffffffffffffffffffffffffffffffffffff161461082e576040517f08c379a0000000000000000000000000000000000000000000000000000000008152600401808060200182810382526022815260200180610de26022913960400191505060405180910390fd5b6060600260008581526020019081526020016000206001018054600181600116156101000203166002900480601f0160208091040260200160405190810160405280929190818152602001828054600181600116156101000203166002900480156108da5780601f106108af576101008083540402835291602001916108da565b820191906000526020600020905b8154815290600101906020018083116108bd57829003601f168201915b505050505090506000600260008681526020019081526020016000206002015490506000600260008781526020019081526020016000206004015490506000600260008881526020019081526020016000206005015490508560026000898152602001908152602001600020600601819055508460026000898152602001908152602001600020600701819055507f446ea2c3db40b3096506c180e8230fb32323f60070c15754edd377a90c1b6fbb600154858533868b878c60405180898152602001806020018881526020018773ffffffffffffffffffffffffffffffffffffffff1673ffffffffffffffffffffffffffffffffffffffff168152602001868152602001858152602001848152602001838152602001828103825289818151815260200191508051906020019080838360005b83811015610a29578082015181840152602081019050610a0e565b50505050905090810190601f168015610a565780820380516001836020036101000a031916815260200191505b50995050505050505050505060405180910390a150505050505050565b600083118015610a84575060008451115b610af6576040517f08c379a000000000000000000000000000000000000000000000000000000000815260040180806020018281038252601f8152602001807f416d6f756e7420616e6420747970652063616e6e6f7420626520656d7074790081525060200191505060405180910390fd5b60016000815480929190600101919050555060405180610120016040528060015481526020018581526020018481526020013373ffffffffffffffffffffffffffffffffffffffff168152602001838152602001828152602001600081526020016000815260200160001515815250600260006001548152602001908152602001600020600082015181600001556020820151816001019080519060200190610ba0929190610d3c565b506040820151816002015560608201518160030160006101000a81548173ffffffffffffffffffffffffffffffffffffffff021916908373ffffffffffffffffffffffffffffffffffffffff1602179055506080820151816004015560a0820151816005015560c0820151816006015560e082015181600701556101008201518160080160006101000a81548160ff0219169083151502179055509050507fafea3bbfc1c0a43dcc6d5532c2b092387fd636d3100c8589e7fd4c3b7fa2bc53600154858533868660405180878152602001806020018681526020018573ffffffffffffffffffffffffffffffffffffffff1673ffffffffffffffffffffffffffffffffffffffff168152602001848152602001838152602001828103825287818151815260200191508051906020019080838360005b83811015610cf1578082015181840152602081019050610cd6565b50505050905090810190601f168015610d1e5780820380516001836020036101000a031916815260200191505b5097505050505050505060405180910390a150505050565b60015481565b828054600181600116156101000203166002900490600052602060002090601f016020900481019282601f10610d7d57805160ff1916838001178555610dab565b82800160010185558215610dab579182015b82811115610daa578251825591602001919060010190610d8f565b5b509050610db89190610dbc565b5090565b610dde91905b80821115610dda576000816000905550600101610dc2565b5090565b9056fe596f7520617265206e6f7420746865206f776e6572206f66207468697320706f7374a265627a7a72315820cfe3acb31df557d99aa46be2e40053f15fbac9698d4f7e2e390ef160532c284364736f6c63430005100032",
  "source": "pragma solidity ^0.5.0;\n\ncontract CryptoTransactions {\n    string public name;\n    uint public transactionsCount = 0;\n\n    mapping(uint => TransactionValues) public transactions;\n\n    struct TransactionValues {\n        uint id;\n        string transactionType;\n        uint amount;\n        address payable user;\n        uint transactionDate;\n        uint rate;\n        uint closeDate;\n        uint closeRate;\n        bool deleted;\n    }\n\n    event TransactionCreated(\n        uint id,\n        string transactionType,\n        uint amount,\n        address payable user,\n        uint transactionDate,\n        uint rate\n    );\n\n    event TransactionClosed(\n        uint id,\n        string transactionType,\n        uint amount,\n        address payable user,\n        uint transactionDate,\n        uint closeDate,\n        uint rate,\n        uint closeRate\n    );\n\n    constructor() public {\n        name = \"CryptoTransactions\";\n    }\n\n    function createTransaction(\n        string memory _type,\n        uint _amount,\n        uint _transactionDate,\n        uint _rate\n    ) public {\n        require(\n            _amount > 0 && bytes(_type).length > 0,\n            \"Amount and type cannot be empty\"\n        );\n        transactionsCount++;\n        transactions[transactionsCount] = TransactionValues(\n            transactionsCount,\n            _type,\n            _amount,\n            msg.sender,\n            _transactionDate,\n            _rate,\n            0,\n            0,\n            false\n        );\n        emit TransactionCreated(\n            transactionsCount,\n            _type,\n            _amount,\n            msg.sender,\n            _transactionDate,\n            _rate\n        );\n    }\n\n    function closeTrade(\n        uint _transactionId,\n        uint _closeDate,\n        uint _closeRate\n    ) public {\n        require(\n            _transactionId > 0 && _transactionId <= transactionsCount,\n            \"Invalid Transaction ID\"\n        );\n\n        require(\n            msg.sender == transactions[_transactionId].user,\n            \"You are not the owner of this post\"\n        );\n\n        string memory _type = transactions[_transactionId].transactionType;\n        uint _amount = transactions[_transactionId].amount;\n        uint _transactionDate = transactions[_transactionId].transactionDate;\n        uint _rate = transactions[_transactionId].rate;\n\n        transactions[_transactionId].closeDate = _closeDate;\n        transactions[_transactionId].closeRate = _closeRate;\n\n        emit TransactionClosed(\n            transactionsCount,\n            _type,\n            _amount,\n            msg.sender,\n            _transactionDate,\n            _closeDate,\n            _rate,\n            _closeRate\n        );\n    }\n\n    function getTransactionsByUser() public view returns (uint[] memory) {\n        uint[] memory result = new uint[](transactionsCount);\n        uint counter = 0;\n\n        // Iterate over all transactions and filter by msg.sender (the caller)\n        for (uint i = 1; i <= transactionsCount; i++) {\n            if (\n                transactions[i].user == msg.sender && !transactions[i].deleted\n            ) {\n                result[counter] = transactions[i].id;\n                counter++;\n            }\n        }\n\n        // Create a properly sized array and copy the result\n        uint[] memory filteredResult = new uint[](counter);\n        for (uint i = 0; i < counter; i++) {\n            filteredResult[i] = result[i];\n        }\n\n        return filteredResult;\n    }\n}\n",
  "sourcePath": "/Users/opteo/crypto/src/contracts/CryptoTransactions.sol",
  "compiler": {
    "name": "solc",
    "version": "0.5.16+commit.9c3226ce.Emscripten.clang"
  },
  "schemaVersion": "3.4.16",
  "updatedAt": "2024-10-08T15:52:03.367Z",
  "networkType": "ethereum",
  "devdoc": {
    "methods": {}
  },
  "userdoc": {
    "methods": {}
  }
}