{
  "contractName": "CryptoTransactions",
  "abi": [
    {
      "inputs": [],
      "stateMutability": "nonpayable",
      "type": "constructor"
    },
    {
      "anonymous": false,
      "inputs": [
        {
          "indexed": false,
          "internalType": "uint256",
          "name": "id",
          "type": "uint256"
        },
        {
          "indexed": false,
          "internalType": "string",
          "name": "transactionType",
          "type": "string"
        },
        {
          "indexed": false,
          "internalType": "uint256",
          "name": "amount",
          "type": "uint256"
        },
        {
          "indexed": false,
          "internalType": "address payable",
          "name": "user",
          "type": "address"
        },
        {
          "indexed": false,
          "internalType": "uint256",
          "name": "transactionDate",
          "type": "uint256"
        },
        {
          "indexed": false,
          "internalType": "uint256",
          "name": "closeDate",
          "type": "uint256"
        },
        {
          "indexed": false,
          "internalType": "uint256",
          "name": "rate",
          "type": "uint256"
        },
        {
          "indexed": false,
          "internalType": "uint256",
          "name": "closeRate",
          "type": "uint256"
        }
      ],
      "name": "TransactionClosed",
      "type": "event"
    },
    {
      "anonymous": false,
      "inputs": [
        {
          "indexed": false,
          "internalType": "uint256",
          "name": "id",
          "type": "uint256"
        },
        {
          "indexed": false,
          "internalType": "string",
          "name": "transactionType",
          "type": "string"
        },
        {
          "indexed": false,
          "internalType": "uint256",
          "name": "amount",
          "type": "uint256"
        },
        {
          "indexed": false,
          "internalType": "address payable",
          "name": "user",
          "type": "address"
        },
        {
          "indexed": false,
          "internalType": "uint256",
          "name": "transactionDate",
          "type": "uint256"
        },
        {
          "indexed": false,
          "internalType": "uint256",
          "name": "rate",
          "type": "uint256"
        }
      ],
      "name": "TransactionCreated",
      "type": "event"
    },
    {
      "inputs": [],
      "name": "name",
      "outputs": [
        {
          "internalType": "string",
          "name": "",
          "type": "string"
        }
      ],
      "stateMutability": "view",
      "type": "function"
    },
    {
      "inputs": [
        {
          "internalType": "uint256",
          "name": "",
          "type": "uint256"
        }
      ],
      "name": "transactions",
      "outputs": [
        {
          "internalType": "uint256",
          "name": "id",
          "type": "uint256"
        },
        {
          "internalType": "string",
          "name": "transactionType",
          "type": "string"
        },
        {
          "internalType": "uint256",
          "name": "amount",
          "type": "uint256"
        },
        {
          "internalType": "address payable",
          "name": "user",
          "type": "address"
        },
        {
          "internalType": "uint256",
          "name": "transactionDate",
          "type": "uint256"
        },
        {
          "internalType": "uint256",
          "name": "rate",
          "type": "uint256"
        },
        {
          "internalType": "uint256",
          "name": "closeDate",
          "type": "uint256"
        },
        {
          "internalType": "uint256",
          "name": "closeRate",
          "type": "uint256"
        },
        {
          "internalType": "bool",
          "name": "deleted",
          "type": "bool"
        }
      ],
      "stateMutability": "view",
      "type": "function"
    },
    {
      "inputs": [],
      "name": "transactionsCount",
      "outputs": [
        {
          "internalType": "uint256",
          "name": "",
          "type": "uint256"
        }
      ],
      "stateMutability": "view",
      "type": "function"
    },
    {
      "inputs": [
        {
          "components": [
            {
              "internalType": "string",
              "name": "_type",
              "type": "string"
            },
            {
              "internalType": "uint256",
              "name": "_amount",
              "type": "uint256"
            },
            {
              "internalType": "uint256",
              "name": "_transactionDate",
              "type": "uint256"
            },
            {
              "internalType": "uint256",
              "name": "_rate",
              "type": "uint256"
            }
          ],
          "internalType": "struct CryptoTransactions.TransactionInput[]",
          "name": "_transactions",
          "type": "tuple[]"
        }
      ],
      "name": "createTransactions",
      "outputs": [],
      "stateMutability": "nonpayable",
      "type": "function"
    },
    {
      "inputs": [
        {
          "internalType": "string",
          "name": "_type",
          "type": "string"
        },
        {
          "internalType": "uint256",
          "name": "_amount",
          "type": "uint256"
        },
        {
          "internalType": "uint256",
          "name": "_transactionDate",
          "type": "uint256"
        },
        {
          "internalType": "uint256",
          "name": "_rate",
          "type": "uint256"
        }
      ],
      "name": "createTransaction",
      "outputs": [],
      "stateMutability": "nonpayable",
      "type": "function"
    },
    {
      "inputs": [
        {
          "internalType": "uint256",
          "name": "_transactionId",
          "type": "uint256"
        },
        {
          "internalType": "uint256",
          "name": "_closeDate",
          "type": "uint256"
        },
        {
          "internalType": "uint256",
          "name": "_closeRate",
          "type": "uint256"
        }
      ],
      "name": "closeTrade",
      "outputs": [],
      "stateMutability": "nonpayable",
      "type": "function"
    },
    {
      "inputs": [],
      "name": "getTransactionsByUser",
      "outputs": [
        {
          "internalType": "uint256[]",
          "name": "",
          "type": "uint256[]"
        }
      ],
      "stateMutability": "view",
      "type": "function"
    }
  ],
  "bytecode": "0x608060405260006001553480156200001657600080fd5b506040518060400160405280601281526020017f43727970746f5472616e73616374696f6e73000000000000000000000000000081525060009080519060200190620000649291906200006b565b5062000180565b82805462000079906200011b565b90600052602060002090601f0160209004810192826200009d5760008555620000e9565b82601f10620000b857805160ff1916838001178555620000e9565b82800160010185558215620000e9579182015b82811115620000e8578251825591602001919060010190620000cb565b5b509050620000f89190620000fc565b5090565b5b8082111562000117576000816000905550600101620000fd565b5090565b600060028204905060018216806200013457607f821691505b602082108114156200014b576200014a62000151565b5b50919050565b7f4e487b7100000000000000000000000000000000000000000000000000000000600052602260045260246000fd5b61190a80620001906000396000f3fe608060405234801561001057600080fd5b506004361061007d5760003560e01c80639e3ef3c61161005b5780639e3ef3c6146100f6578063b2a3dbf214610112578063e0a5b1c21461012e578063fd99a7461461014a5761007d565b806306fdde031461008257806363d0a080146100a05780639ace38c2146100be575b600080fd5b61008a610168565b604051610097919061141a565b60405180910390f35b6100a86101f6565b6040516100b591906113f8565b60405180910390f35b6100d860048036038101906100d391906111af565b6104b5565b6040516100ed999897969594939291906115a4565b60405180910390f35b610110600480360381019061010b91906111d8565b6105b8565b005b61012c600480360381019061012791906110f3565b610827565b005b61014860048036038101906101439190611134565b610cd3565b005b610152610eba565b60405161015f919061149c565b60405180910390f35b60008054610175906117a4565b80601f01602080910402602001604051908101604052809291908181526020018280546101a1906117a4565b80156101ee5780601f106101c3576101008083540402835291602001916101ee565b820191906000526020600020905b8154815290600101906020018083116101d157829003601f168201915b505050505081565b6060600060015467ffffffffffffffff81111561023c577f4e487b7100000000000000000000000000000000000000000000000000000000600052604160045260246000fd5b60405190808252806020026020018201604052801561026a5781602001602082028036833780820191505090505b509050600080600190505b6001548111610393573373ffffffffffffffffffffffffffffffffffffffff166002600083815260200190815260200160002060030160009054906101000a900473ffffffffffffffffffffffffffffffffffffffff1673ffffffffffffffffffffffffffffffffffffffff1614801561031057506002600082815260200190815260200160002060080160009054906101000a900460ff16155b15610380576002600082815260200190815260200160002060000154838381518110610365577f4e487b7100000000000000000000000000000000000000000000000000000000600052603260045260246000fd5b602002602001018181525050818061037c906117d6565b9250505b808061038b906117d6565b915050610275565b5060008167ffffffffffffffff8111156103d6577f4e487b7100000000000000000000000000000000000000000000000000000000600052604160045260246000fd5b6040519080825280602002602001820160405280156104045781602001602082028036833780820191505090505b50905060005b828110156104ab5783818151811061044b577f4e487b7100000000000000000000000000000000000000000000000000000000600052603260045260246000fd5b602002602001015182828151811061048c577f4e487b7100000000000000000000000000000000000000000000000000000000600052603260045260246000fd5b60200260200101818152505080806104a3906117d6565b91505061040a565b5080935050505090565b60026020528060005260406000206000915090508060000154908060010180546104de906117a4565b80601f016020809104026020016040519081016040528092919081815260200182805461050a906117a4565b80156105575780601f1061052c57610100808354040283529160200191610557565b820191906000526020600020905b81548152906001019060200180831161053a57829003601f168201915b5050505050908060020154908060030160009054906101000a900473ffffffffffffffffffffffffffffffffffffffff16908060040154908060050154908060060154908060070154908060080160009054906101000a900460ff16905089565b6000831180156105ca57506001548311155b610609576040517f08c379a00000000000000000000000000000000000000000000000000000000081526004016106009061145c565b60405180910390fd5b6002600084815260200190815260200160002060030160009054906101000a900473ffffffffffffffffffffffffffffffffffffffff1673ffffffffffffffffffffffffffffffffffffffff163373ffffffffffffffffffffffffffffffffffffffff16146106ad576040517f08c379a00000000000000000000000000000000000000000000000000000000081526004016106a49061147c565b60405180910390fd5b60006002600085815260200190815260200160002060010180546106d0906117a4565b80601f01602080910402602001604051908101604052809291908181526020018280546106fc906117a4565b80156107495780601f1061071e57610100808354040283529160200191610749565b820191906000526020600020905b81548152906001019060200180831161072c57829003601f168201915b505050505090506000600260008681526020019081526020016000206002015490506000600260008781526020019081526020016000206004015490506000600260008881526020019081526020016000206005015490508560026000898152602001908152602001600020600601819055508460026000898152602001908152602001600020600701819055507f446ea2c3db40b3096506c180e8230fb32323f60070c15754edd377a90c1b6fbb600154858533868b878c60405161081698979695949392919061151f565b60405180910390a150505050505050565b60005b8151811015610ccf57600082828151811061086e577f4e487b7100000000000000000000000000000000000000000000000000000000600052603260045260246000fd5b6020026020010151602001511180156108cc575060008282815181106108bd577f4e487b7100000000000000000000000000000000000000000000000000000000600052603260045260246000fd5b60200260200101516000015151115b61090b576040517f08c379a00000000000000000000000000000000000000000000000000000000081526004016109029061143c565b60405180910390fd5b6001600081548092919061091e906117d6565b91905055506040518061012001604052806001548152602001838381518110610970577f4e487b7100000000000000000000000000000000000000000000000000000000600052603260045260246000fd5b60200260200101516000015181526020018383815181106109ba577f4e487b7100000000000000000000000000000000000000000000000000000000600052603260045260246000fd5b60200260200101516020015181526020013373ffffffffffffffffffffffffffffffffffffffff168152602001838381518110610a20577f4e487b7100000000000000000000000000000000000000000000000000000000600052603260045260246000fd5b6020026020010151604001518152602001838381518110610a6a577f4e487b7100000000000000000000000000000000000000000000000000000000600052603260045260246000fd5b6020026020010151606001518152602001600081526020016000815260200160001515815250600260006001548152602001908152602001600020600082015181600001556020820151816001019080519060200190610acb929190610ec0565b506040820151816002015560608201518160030160006101000a81548173ffffffffffffffffffffffffffffffffffffffff021916908373ffffffffffffffffffffffffffffffffffffffff1602179055506080820151816004015560a0820151816005015560c0820151816006015560e082015181600701556101008201518160080160006101000a81548160ff0219169083151502179055509050507fafea3bbfc1c0a43dcc6d5532c2b092387fd636d3100c8589e7fd4c3b7fa2bc53600154838381518110610bc6577f4e487b7100000000000000000000000000000000000000000000000000000000600052603260045260246000fd5b602002602001015160000151848481518110610c0b577f4e487b7100000000000000000000000000000000000000000000000000000000600052603260045260246000fd5b60200260200101516020015133868681518110610c51577f4e487b7100000000000000000000000000000000000000000000000000000000600052603260045260246000fd5b602002602001015160400151878781518110610c96577f4e487b7100000000000000000000000000000000000000000000000000000000600052603260045260246000fd5b602002602001015160600151604051610cb4969594939291906114b7565b60405180910390a18080610cc7906117d6565b91505061082a565b5050565b600083118015610ce4575060008451115b610d23576040517f08c379a0000000000000000000000000000000000000000000000000000000008152600401610d1a9061143c565b60405180910390fd5b60016000815480929190610d36906117d6565b919050555060405180610120016040528060015481526020018581526020018481526020013373ffffffffffffffffffffffffffffffffffffffff168152602001838152602001828152602001600081526020016000815260200160001515815250600260006001548152602001908152602001600020600082015181600001556020820151816001019080519060200190610dd3929190610ec0565b506040820151816002015560608201518160030160006101000a81548173ffffffffffffffffffffffffffffffffffffffff021916908373ffffffffffffffffffffffffffffffffffffffff1602179055506080820151816004015560a0820151816005015560c0820151816006015560e082015181600701556101008201518160080160006101000a81548160ff0219169083151502179055509050507fafea3bbfc1c0a43dcc6d5532c2b092387fd636d3100c8589e7fd4c3b7fa2bc536001548585338686604051610eac969594939291906114b7565b60405180910390a150505050565b60015481565b828054610ecc906117a4565b90600052602060002090601f016020900481019282610eee5760008555610f35565b82601f10610f0757805160ff1916838001178555610f35565b82800160010185558215610f35579182015b82811115610f34578251825591602001919060010190610f19565b5b509050610f429190610f46565b5090565b5b80821115610f5f576000816000905550600101610f47565b5090565b6000610f76610f7184611669565b611638565b9050808382526020820190508260005b85811015610fb65781358501610f9c8882611052565b845260208401935060208301925050600181019050610f86565b5050509392505050565b6000610fd3610fce84611695565b611638565b905082815260208101848484011115610feb57600080fd5b610ff6848285611762565b509392505050565b600082601f83011261100f57600080fd5b813561101f848260208601610f63565b91505092915050565b600082601f83011261103957600080fd5b8135611049848260208601610fc0565b91505092915050565b60006080828403121561106457600080fd5b61106e6080611638565b9050600082013567ffffffffffffffff81111561108a57600080fd5b61109684828501611028565b60008301525060206110aa848285016110de565b60208301525060406110be848285016110de565b60408301525060606110d2848285016110de565b60608301525092915050565b6000813590506110ed816118bd565b92915050565b60006020828403121561110557600080fd5b600082013567ffffffffffffffff81111561111f57600080fd5b61112b84828501610ffe565b91505092915050565b6000806000806080858703121561114a57600080fd5b600085013567ffffffffffffffff81111561116457600080fd5b61117087828801611028565b9450506020611181878288016110de565b9350506040611192878288016110de565b92505060606111a3878288016110de565b91505092959194509250565b6000602082840312156111c157600080fd5b60006111cf848285016110de565b91505092915050565b6000806000606084860312156111ed57600080fd5b60006111fb868287016110de565b935050602061120c868287016110de565b925050604061121d868287016110de565b9150509250925092565b600061123383836113da565b60208301905092915050565b6112488161171a565b82525050565b6000611259826116d5565b61126381856116f8565b935061126e836116c5565b8060005b8381101561129f5781516112868882611227565b9750611291836116eb565b925050600181019050611272565b5085935050505092915050565b6112b58161172c565b82525050565b60006112c6826116e0565b6112d08185611709565b93506112e0818560208601611771565b6112e9816118ac565b840191505092915050565b6000611301601f83611709565b91507f416d6f756e7420616e6420747970652063616e6e6f7420626520656d707479006000830152602082019050919050565b6000611341601683611709565b91507f496e76616c6964205472616e73616374696f6e204944000000000000000000006000830152602082019050919050565b6000611381602283611709565b91507f596f7520617265206e6f7420746865206f776e6572206f66207468697320706f60008301527f73740000000000000000000000000000000000000000000000000000000000006020830152604082019050919050565b6113e381611758565b82525050565b6113f281611758565b82525050565b60006020820190508181036000830152611412818461124e565b905092915050565b6000602082019050818103600083015261143481846112bb565b905092915050565b60006020820190508181036000830152611455816112f4565b9050919050565b6000602082019050818103600083015261147581611334565b9050919050565b6000602082019050818103600083015261149581611374565b9050919050565b60006020820190506114b160008301846113e9565b92915050565b600060c0820190506114cc60008301896113e9565b81810360208301526114de81886112bb565b90506114ed60408301876113e9565b6114fa606083018661123f565b61150760808301856113e9565b61151460a08301846113e9565b979650505050505050565b600061010082019050611535600083018b6113e9565b8181036020830152611547818a6112bb565b905061155660408301896113e9565b611563606083018861123f565b61157060808301876113e9565b61157d60a08301866113e9565b61158a60c08301856113e9565b61159760e08301846113e9565b9998505050505050505050565b6000610120820190506115ba600083018c6113e9565b81810360208301526115cc818b6112bb565b90506115db604083018a6113e9565b6115e8606083018961123f565b6115f560808301886113e9565b61160260a08301876113e9565b61160f60c08301866113e9565b61161c60e08301856113e9565b61162a6101008301846112ac565b9a9950505050505050505050565b6000604051905081810181811067ffffffffffffffff8211171561165f5761165e61187d565b5b8060405250919050565b600067ffffffffffffffff8211156116845761168361187d565b5b602082029050602081019050919050565b600067ffffffffffffffff8211156116b0576116af61187d565b5b601f19601f8301169050602081019050919050565b6000819050602082019050919050565b600081519050919050565b600081519050919050565b6000602082019050919050565b600082825260208201905092915050565b600082825260208201905092915050565b600061172582611738565b9050919050565b60008115159050919050565b600073ffffffffffffffffffffffffffffffffffffffff82169050919050565b6000819050919050565b82818337600083830152505050565b60005b8381101561178f578082015181840152602081019050611774565b8381111561179e576000848401525b50505050565b600060028204905060018216806117bc57607f821691505b602082108114156117d0576117cf61184e565b5b50919050565b60006117e182611758565b91507fffffffffffffffffffffffffffffffffffffffffffffffffffffffffffffffff8214156118145761181361181f565b5b600182019050919050565b7f4e487b7100000000000000000000000000000000000000000000000000000000600052601160045260246000fd5b7f4e487b7100000000000000000000000000000000000000000000000000000000600052602260045260246000fd5b7f4e487b7100000000000000000000000000000000000000000000000000000000600052604160045260246000fd5b6000601f19601f8301169050919050565b6118c681611758565b81146118d157600080fd5b5056fea2646970667358221220ddf5f615a7d755c7abba12da2b736f3707952123c5a995cf7a8d9a62f650728464736f6c63430008000033",
  "immutableReferences": {},
  "source": "pragma solidity ^0.8.0;\n// pragma experimental ABIEncoderV2;\n\ncontract CryptoTransactions {\n    string public name;\n    uint public transactionsCount = 0;\n\n    mapping(uint => TransactionValues) public transactions;\n\n    struct TransactionValues {\n        uint id;\n        string transactionType;\n        uint amount;\n        address payable user;\n        uint transactionDate;\n        uint rate;\n        uint closeDate;\n        uint closeRate;\n        bool deleted;\n    }\n\n    struct TransactionInput {\n        string _type;\n        uint _amount;\n        uint _transactionDate;\n        uint _rate;\n    }\n\n    event TransactionCreated(\n        uint id,\n        string transactionType,\n        uint amount,\n        address payable user,\n        uint transactionDate,\n        uint rate\n    );\n\n    event TransactionClosed(\n        uint id,\n        string transactionType,\n        uint amount,\n        address payable user,\n        uint transactionDate,\n        uint closeDate,\n        uint rate,\n        uint closeRate\n    );\n\n    constructor() public {\n        name = \"CryptoTransactions\";\n    }\n\n    function createTransactions(\n        TransactionInput[] memory _transactions\n    ) public {\n        // Loop through the array of structs and create transactions\n        for (uint i = 0; i < _transactions.length; i++) {\n            require(\n                _transactions[i]._amount > 0 &&\n                    bytes(_transactions[i]._type).length > 0,\n                \"Amount and type cannot be empty\"\n            );\n\n            transactionsCount++;\n            transactions[transactionsCount] = TransactionValues(\n                transactionsCount,\n                _transactions[i]._type,\n                _transactions[i]._amount,\n                payable(msg.sender),\n                _transactions[i]._transactionDate,\n                _transactions[i]._rate,\n                0,\n                0,\n                false\n            );\n\n            emit TransactionCreated(\n                transactionsCount,\n                _transactions[i]._type,\n                _transactions[i]._amount,\n                payable(msg.sender),\n                _transactions[i]._transactionDate,\n                _transactions[i]._rate\n            );\n        }\n    }\n\n    function createTransaction(\n        string memory _type,\n        uint _amount,\n        uint _transactionDate,\n        uint _rate\n    ) public {\n        require(\n            _amount > 0 && bytes(_type).length > 0,\n            \"Amount and type cannot be empty\"\n        );\n        transactionsCount++;\n        transactions[transactionsCount] = TransactionValues(\n            transactionsCount,\n            _type,\n            _amount,\n            payable(msg.sender),\n            _transactionDate,\n            _rate,\n            0,\n            0,\n            false\n        );\n        emit TransactionCreated(\n            transactionsCount,\n            _type,\n            _amount,\n            payable(msg.sender),\n            _transactionDate,\n            _rate\n        );\n    }\n\n    function closeTrade(\n        uint _transactionId,\n        uint _closeDate,\n        uint _closeRate\n    ) public {\n        require(\n            _transactionId > 0 && _transactionId <= transactionsCount,\n            \"Invalid Transaction ID\"\n        );\n\n        require(\n            msg.sender == transactions[_transactionId].user,\n            \"You are not the owner of this post\"\n        );\n\n        string memory _type = transactions[_transactionId].transactionType;\n        uint _amount = transactions[_transactionId].amount;\n        uint _transactionDate = transactions[_transactionId].transactionDate;\n        uint _rate = transactions[_transactionId].rate;\n\n        transactions[_transactionId].closeDate = _closeDate;\n        transactions[_transactionId].closeRate = _closeRate;\n\n        emit TransactionClosed(\n            transactionsCount,\n            _type,\n            _amount,\n            payable(msg.sender),\n            _transactionDate,\n            _closeDate,\n            _rate,\n            _closeRate\n        );\n    }\n\n    function getTransactionsByUser() public view returns (uint[] memory) {\n        uint[] memory result = new uint[](transactionsCount);\n        uint counter = 0;\n\n        // Iterate over all transactions and filter by msg.sender (the caller)\n        for (uint i = 1; i <= transactionsCount; i++) {\n            if (\n                transactions[i].user == msg.sender && !transactions[i].deleted\n            ) {\n                result[counter] = transactions[i].id;\n                counter++;\n            }\n        }\n\n        // Create a properly sized array and copy the result\n        uint[] memory filteredResult = new uint[](counter);\n        for (uint i = 0; i < counter; i++) {\n            filteredResult[i] = result[i];\n        }\n\n        return filteredResult;\n    }\n}\n",
  "sourcePath": "/Users/opteo/crypto/src/contracts/CryptoTransactions.sol",
  "compiler": {
    "name": "solc",
    "version": "0.8.0+commit.c7dfd78e.Emscripten.clang"
  },
  "schemaVersion": "3.4.16",
  "updatedAt": "2024-10-14T08:11:51.719Z",
  "devdoc": {
    "kind": "dev",
    "methods": {},
    "version": 1
  },
  "userdoc": {
    "kind": "user",
    "methods": {},
    "version": 1
  }
}